:0400000047EF0BF0CB
:10060000004C6F67732061726520446F776E6C6F6A
:10061000616465640A0D0050617373776F726420C2
:1006200069732073657420200054494D45202020B3
:1006300020204556202052504D2000456E74657292
:100640002050617373776F7264202000446F776E5F
:100650006C6F6164696E67204C4F47530050617343
:1006600073776F726420456E746572656400454EE1
:100670005445522050415353574F524400506173D8
:1006800073776F72642057726F6E67004C6F677379
:1006900020617265203A200A0D005375636365730B
:1006A0007366756C6C79004C4F475F434C45415203
:1006B00045440054494D452053455400696E20552A
:1006C000415254002A200000000E206E000E1F6EC2
:1006D0001F502010D8A426D044504510D8B422D0A2
:1006E000C40E076E0750D8A4060E086E800E096E61
:1006F00079EC0BF01F50110DF350600F1C6E1CC0F5
:1007000007F0086A820E096E79EC0BF01F50110D8C
:10071000F350710F1C6E1CC007F0086AC20E096E00
:1007200079EC0BF0010E49EC0CF01E6E000E49EC5A
:100730000CF01D6E0C0E1E18D8A46BD0205069E171
:10074000050E1F5CD8B065D044504510D8B461D0B8
:10075000205004E1050E1F5CD8A004D0000E206ECE
:10076000040E1F6E1F4A202A205031E1050E1F5C27
:10077000D8B02DD01F50110DF3504F0F1C6E1CC060
:1007800007F0086A820E096E79EC0BF01F50110D0C
:10079000F350600F1C6E1CC007F0086AC20E096E91
:1007A00079EC0BF0490E076E0750D8A4060E086EC0
:1007B000800E096E79EC0BF0C40E076E0750D8A4BA
:1007C000060E086EC00E096E79EC0BF022D0930E67
:1007D000076E086A820E096E79EC0BF0A40E076EA4
:1007E000086AC20E096E79EC0BF0490E076E0750CD
:1007F000D8A4060E086E800E096E79EC0BF0C40EBC
:10080000076E0750D8A4060E086EC00E096E79EC6C
:100810000BF00B0E1E18D8A460D01F502010D8B4B7
:100820005CD044504510D8B458D0205031E1050E6A
:100830001F5CD8B02DD0C40E076E0750D8A4060E8A
:10084000086E800E096E79EC0BF01F50110DF350FD
:100850004F0F1C6E1CC007F0086A820E096E79ECFF
:100860000BF0490E076E0750D8A4060E086EC00E96
:10087000096E79EC0BF01F50110DF350600F1C6ED8
:100880001CC007F0086AC20E096E79EC0BF022D08A
:10089000930E076E086A820E096E79EC0BF0A40EB7
:1008A000076E086AC20E096E79EC0BF0490E076EEE
:1008B0000750D8A4060E086E800E096E79EC0BF076
:1008C000C40E076E0750D8A4060E086EC00E096E3F
:1008D00079EC0BF01F06D8A020060B0E1D18D8A42B
:1008E00044D0344A352A510E34183FE1C30E35182E
:1008F000D8A43BD0000E456E010E446E000E356E3E
:10090000000E346E1F06D8A020061F502010D8B449
:10091000D5EC09F01F042010D8A406D082EC09F011
:10092000000E206E000E1F6E020E1F182010D8A49D
:1009300006D0BAEC04F0000E206E000E1F6E030EFF
:100940001F182010D8A406D0CBEC07F0000E206EA4
:10095000000E1F6E040E1F182010D8A406D023EC22
:1009600009F0000E206E000E1F6E0A0E1E18D8B47D
:100970001200AED6000E186E000E196E000E1A6E22
:10098000000E1B6E000E016E010E27EC0DF00A0E1C
:10099000046E020ED3EC0CF086EC0CF00B6E0B38F0
:1009A000F00B010B176E0A0E046E020ED3EC0CF066
:1009B000FDEC0CF00F0B1710176E0A0E046E010EF3
:1009C000D3EC0CF086EC0CF00B6E0B38F00B166EC3
:1009D0000A0E046E010ED3EC0CF0FDEC0CF00F0BC4
:1009E0001610166E0A0E046E000ED3EC0CF086EC98
:1009F0000CF00B6E0B38F00B156E0A0E046E000E29
:100A0000D3EC0CF0FDEC0CF00F0B1510156EB30EC3
:100A1000076E0750D8A4060E086E840E096E79EC96
:100A20000BF0010E49EC0CF0146E000E49EC0CF0CA
:100A3000106E0B0E1418D8A428D0185019101A10C4
:100A40001B10D8A407D0152A3C0E1518D8A402D024
:100A5000000E156E180419101A101B10D8A407D018
:100A6000162A3C0E1618D8A402D0000E166E020EDE
:100A7000181819101A101B10D8A407D0172A0D0E19
:100A80001718D8A402D0000E176E0C0E1418D8A494
:100A900025D0185019101A101B10D8A406D015060E
:100AA0001528D8A402D03B0E156E180419101A1080
:100AB0001B10D8A406D016061628D8A402D03B0EC8
:100AC000166E020E181819101A101B10D8A406D092
:100AD00017061728D8A402D00C0E176E090E10188E
:100AE000D8A416D0010E1826000E19221A221B2295
:100AF0001B501A10191004E1030E185CD8A008D07E
:100B0000000E186E000E196E000E1A6E000E1B6E8F
:100B10000A0E1418D8A406D0000E016E010E27ECA0
:100B20000DF012001550E8EC0CF0116E1650E8ECC8
:100B30000CF0126E1750E8EC0CF0136E11C002F0BE
:100B4000000E5EEC0DF012C002F0010E5EEC0DF036
:100B500013C002F0020E5EEC0DF0A00E0C6E860EBD
:100B60000D6E010E0E6E000E0F6E0C06000E0D5A6D
:100B70000E5A0F5A0C28F9E10D28F7E10E28F5E17D
:100B80000F28D8A4F2D7C10E086E0A0E046E1750B3
:100B900086EC0CF0300F7CEC0DF0C20E086E0A0EE5
:100BA000046E1750FDEC0CF0300F7CEC0DF0C30E12
:100BB000086E3A0E7CEC0DF0C40E086E0A0E046E40
:100BC000165086EC0CF0300F7CEC0DF0C50E086E64
:100BD0000A0E046E1650FDEC0CF0300F7CEC0DF09C
:100BE000C60E086E3A0E7CEC0DF0C70E086E0A0EAB
:100BF000046E155086EC0CF0300F7CEC0DF0C80E36
:100C0000086E0A0E046E1550FDEC0CF0300F7CECF3
:100C10000DF0FDD6000E0A6E000E096E31BE06D034
:100C2000315003E10A0E305CD8B0E4D0000E0C6EF7
:100C3000000E0B6E22D00B50380FD96EDA6A30C01E
:100C400001F031C002F0000E046E110E036E3BEC99
:100C50000DF0000E076E010E086E015007260250BF
:100C6000082209500724E16E0A500820E26EDFCF07
:100C7000E7FF094A0A2A0B4A0C2A0B50380FD96E93
:100C8000DA6ADF50D8A4D7D730C001F031C002F003
:100C9000000E046E110E036E3BEC0DF0000E076E9D
:100CA000010E086E01500726025008220950072441
:100CB000D96E0A500820DA6E200EDF6E094A0A2A21
:100CC000000E0C6E000E0B6E25D03250030DF3504B
:100CD000B50F0B24D96EDA6A30C001F031C002F0D2
:100CE000000E046E110E036E3BEC0DF0000E076E4D
:100CF000010E086E015007260250082209500724F1
:100D0000E16E0A500820E26EDFCFE7FF094A0A2AA7
:100D10000B4A0C2A3250030DF350B50F0B24D96E39
:100D2000DA6ADF50D8A4D1D730C001F031C002F068
:100D3000000E046E110E036E3BEC0DF0000E076EFC
:100D4000010E086E015007260250082209500724A0
:100D5000D96E0A500820DA6E200EDF6E094A0A2A80
:100D6000000E0C6E000E0B6E22D00B50410FD96E90
:100D7000DA6A30C001F031C002F0000E046E110ECC
:100D8000036E3BEC0DF0000E076E010E086E015075
:100D900007260250082209500724E16E0A50082055
:100DA000E26EDFCFE7FF094A0A2A0B4A0C2A0B50F2
:100DB000410FD96EDA6ADF50D8A4D7D730C001F01E
:100DC00031C002F0000E046E110E036E3BEC0DF00C
:100DD000000E076E010E086E015007260250082211
:100DE00009500724D96E0A500820DA6E000EDF6E13
:100DF000304A312A0A0E30183110D8A41200000EE1
:100E0000316E000E306E1200000E1B6E000E1A6E58
:100E100020EE0CF0040EDE6AE806FDE2010E49EC5D
:100E20000CF0196E1BBE06D01B5032E1040E1A5C8A
:100E3000D8B02ED06E0E076E0750D8A4060E086EDE
:100E4000800E096E79EC0BF00B0E1918D8A40ED099
:100E50001A500C0FD96EDA6A310EDF6E1A4A1B2A4D
:100E60001A50C00F086E2A0E7CEC0DF00C0E1918EB
:100E7000D8A40ED01A500C0FD96EDA6A300EDF6E7D
:100E80001A4A1B2A1A50C00F086E2A0E7CEC0DF06D
:100E9000040E1A181B10D8A407D01A500C0FD96EC4
:100EA000DA6A000EDF6E4C804CA0B8D7470E016E98
:100EB0000C0E026EA9EC0BF001500210D8A437D032
:100EC000000E016E010E27EC0DF05D0E076E07504F
:100ED000D8A4060E086E800E096E79EC0BF09A0EFF
:100EE000076E0750D8A4060E086EC40E096E79EC82
:100EF0000BF0000E116E000E126E000E136E000E3F
:100F0000146E010E1126000E12221322142214BE9A
:100F1000F8D71450131006E1500E115CC30E12588E
:100F2000D8A0EFD7000E0B6E010E0A6E1200000E55
:100F3000016E010E27EC0DF07D0E076E0750D8A450
:100F4000060E086E800E096E79EC0BF0000E156E21
:100F5000000E166E000E176E000E186E010E15268E
:100F6000000E16221722182218BEF8D7185008E1D2
:100F7000200E155CA10E1658070E1758D8A0EED7F4
:100F8000000E1B6E000E1A6E000E016E010E27EC95
:100F90000DF04C9043D7000E0E6E000E0D6E000E3D
:100FA0000B6E000E0A6E000E016E010E27EC0DF0A6
:100FB0003B0E076E0750D8A4060E086E800E096E11
:100FC00079EC0BF0010E49EC0CF00C6E0EBE06D065
:100FD0000E506AE1040E0D5CD8B066D00B0E0C18F2
:100FE000D8A431D00D500E10D8A405D0310E026E09
:100FF000000E6DEC0DF00D040E10D8A405D0310ECE
:10100000026E010E6DEC0DF0020E0D180E10D8A43C
:1010100005D0310E026E020E6DEC0DF0030E0D18B0
:101020000E10D8A405D0310E026E030E6DEC0DF03B
:101030000A50C00F086E2A0E7CEC0DF00A4A0B2AEB
:101040000D4A0E2A31D00C0E0C18D8A42DD00D50FC
:101050000E10D8A405D0300E026E000E6DEC0DF00F
:101060000D040E10D8A405D0300E026E010E6DECEA
:101070000DF0020E0D180E10D8A405D0300E026E21
:10108000020E6DEC0DF0030E0D180E10D8A405D055
:10109000300E026E030E6DEC0DF00A50C00F086E9C
:1010A0002A0E7CEC0DF0CAD7040E0D180E10D8A431
:1010B0001CD0170E076E0750D8A4060E086EC00E7F
:1010C000096E79EC0BF0000E12EC0DF0476E010E7C
:1010D00012EC0DF0486E020E12EC0DF0496E030E8C
:1010E00012EC0DF04A6E000E4B6E0A0E0C18D8A4CE
:1010F00069D7000E016E010E27EC0DF01200BEEC58
:101100000CF0040E68EC0CF001C008F002C009F00D
:10111000000E0B6E0A0E0A6EFDEC0BF008C02CF0F0
:1011200009C02DF02DBE0AD02D5004E1640E2C5CB8
:10113000D8A004D0000E2D6E630E2C6E000E436EF0
:10114000000E236E010E226E2250410FD96EDA6A14
:101150002CC001F02DC002F0000E046E0A0E036ECA
:10116000DBEC0AF00150300FDF6E2CC001F02DC017
:1011700002F0000E046E0A0E036E25EC0AF001C0A8
:101180002CF002C02DF02206D8A0230623AEDCD717
:10119000410E076E086ACE0E096E79EC0BF013EC67
:1011A0000BF09CEC0DF0010E49EC0CF0376E37049F
:1011B000D8A406D0000E336E080E326E0AEC06F08C
:1011C000020E3718D8A40CD033BE06D0335006E137
:1011D000070E325CD8B002D0324A332A0AEC06F04D
:1011E000030E3718D8A40DD033BE09D0335004E114
:1011F000020E325CD8A003D03206D8A033060AEC27
:1012000006F03250030DF350B50F216E21C007F0E8
:10121000086ACA0E096E79EC0BF00B0E3718D8A4C9
:1012200070D7000E016E010E27EC0DF004EC07F0F4
:101230000AC02EF00BC02FF02E042F10D8A461D7B7
:1012400064EC03F05ED7000E016E010E27EC0DF08A
:101250004C0E076E0750D8A4060E086E800E096E5D
:1012600079EC0BF0BC0E076E0750D8A4060E086E82
:10127000C50E096E79EC0BF0010E076E0750D8A46D
:10128000060E086ED4EC0BF08C0E076E0750D8A437
:10129000060E086ED4EC0BF0000E0C6E000E0B6EFA
:1012A0000BC001F00CC002F0000E046E110E036EB4
:1012B0003BEC0DF0000E0124076E010E0220086EBB
:1012C000D4EC0BF0970E076E0750D8A4060E086EEC
:1012D000D4EC0BF00B4A0C2A0CBEE2D70C5004E104
:1012E0000A0E0B5CD8A0DCD7010E49EC0CF00A6E9C
:1012F0000A0E0A18D8A4F8D7000E016E010E27ECCA
:101300000DF01200000E0E6E000E0D6E000E106E2F
:10131000000E0F6E0DC001F00EC002F0000E046E44
:10132000110E036E3BEC0DF0000E0A6E010E0B6EFB
:1013300001500A2602500B220F500A24D96E105079
:101340000B20DA6E000EDF6E0F4A102A10BEE2D7B5
:10135000105004E1120E0F5CD8A0DCD70D4A0E2A03
:101360000EBED4D70E5004E10A0E0D5CD8A0CED725
:10137000000E016E010E27EC0DF0A70E076E075050
:10138000D8A4060E086E820E096E79EC0BF0010EE1
:1013900049EC0CF00C6E0A0E0C18D8A4F8D7000E0D
:1013A000016E010E27EC0DF01200000E0B6E000E08
:1013B0000A6E010E49EC0CF0376E0B0E3718D8A4EC
:1013C0000BD00A4A0B2A0A0E0A180B10D8A404D014
:1013D000000E0B6E000E0A6E0C0E3718D8A40CD03F
:1013E0000A06D8A00B060A2807E10B28D8A404D0C7
:1013F000000E0B6E090E0A6E0A0E3718D8A406D01E
:10140000000E016E010E27EC0DF01200290E076E82
:101410000750D8A4060E086E800E096E79EC0BF00A
:101420000AC001F00BC002F0000E046E110E036E34
:101430003BEC0DF0000E0124076E010E0220086E39
:10144000C00E096E79EC0BF0B4D7000E066E04AE38
:1014500006D0036C041ED8B0042A010E066E02AE3C
:1014600006D0016C021ED8B0022A010E061A000E28
:10147000086E000E076E03500410D8B41CD0010E85
:10148000056E04D0D89003360436052A04AEFAD788
:10149000D890073608360350015C04500258D8A093
:1014A00005D00350015E0450025A0780D8900432E0
:1014B0000332052EEDD70650D8B404D0076C081EB1
:1014C000D8B0082A07C001F008C002F01200819AC3
:1014D000818C818E81B202D0010E120081B402D0C3
:1014E000040E120081B602D0070E120081B802D09D
:1014F0000A0E1200818A819C818E81B202D0020E76
:10150000120081B402D0050E120081B602D0080E7E
:10151000120081B802D00B0E1200818A818C819E4C
:10152000819E81B202D0030E120081B402D0060E59
:10153000120081B602D0090E120081B802D00C0E42
:101540001200FF0E120076696577206C6F6720200D
:1015500020202000000000636C656172206C6F67C2
:1015600020202020202020007365742074696D6580
:101570002020202020202020006368616E676520E5
:1015800070776420202020202020646F776E6C6F9D
:101590006164206C6F6720202020004F4E004E5564
:1015A00000473100473200473300473400473500D9
:1015B000524700434F00000E066E02AE06D0016C8B
:1015C000021ED8B0022A010E066E04AE04D0036CCF
:1015D000041ED8B0042A03500410D8B418D0010E49
:1015E000056E04D0D89003360436052A04AEFAD727
:1015F0000350015C04500258D8A004D00350015E8F
:101600000450025AD89004320332052EF1D7065006
:10161000D8B404D0016C021ED8B0022A01C001F077
:1016200002C002F01200020ED3EC0CF0296E010E83
:10163000D3EC0CF02A6E000ED3EC0CF02B6E29AC20
:1016400004D029380F0B010B03D029380F0B030BE3
:10165000300F386E29500F0B300F396E3A0E3A6E3C
:101660002A380F0B0F0B300F3B6E2A500F0B300F29
:101670003C6E3A0E3D6E2B380F0B0F0B300F3E6E4B
:101680002B500F0B300F3F6E000E406E1200460EB7
:10169000F66E150EF76E000EF86E00EE60F010EEAE
:1016A00070F00900F5CFEEFFE550E150FAE16C0E65
:1016B000F66E1B0EF76E000EF86E00EE44F010EEA4
:1016C00008F00900F5CFEEFFE550E150FAE101EE38
:1016D00000F0AA0EEE6AE806FDE14C6A00EE24F086
:1016E000200EEE6AE806FDE1000EF86E00017FEFC5
:1016F00008F0000E016E095027EC0DF016D0010E17
:10170000016E07C0F6FF08C0F7FFF86A050EF76420
:1017100003D00800F55005D0F6CFE9FFF7CFEAFF78
:10172000EF5027EC0DF0074A082A07C0F6FF08C063
:10173000F7FFF86A050EF76403D00800F55005D0EE
:10174000F6CFE9FFF7CFEAFFEF500009D8B4120057
:10175000D6D71DD00250D96EDA6A0150E16EE26A26
:10176000DE50E618D8B411D00150D96EDA6ADF50D5
:10177000036E0250D96EDA6ADF50046E0450035CC7
:10178000016E026AD8A002061200012A022A015044
:10179000D96EDA6ADF50D8B4E7D70250D96EDA6A68
:1017A000DF50D8B4E1D7D6D714D007C0F6FF08C0B1
:1017B000F7FFF86A050EF76403D00800F55005D06E
:1017C000F6CFE9FFF7CFEAFFEF50A4EC0DF0074AA0
:1017D000082A07C0F6FF08C0F7FFF86A050EF7648D
:1017E00003D00800F55005D0F6CFE9FFF7CFEAFFA8
:1017F000EF500009D8B41200D8D7000E0D6E000EBD
:101800000C6E0A500B10D8B41CD0010E0E6E04D012
:10181000D8900A360B360E2A0BAEFAD7D8900C3673
:101820000D360A50085C0B500958D8A005D00A5054
:10183000085E0B50095A0C80D8900B320A320E2EDB
:10184000EDD70CC008F00DC009F01200000ED3EC6B
:101850000CF0046E04508009026E000E5EEC0DF078
:10186000020ED3EC0CF0046E04C002F0020E5EEC2B
:101870000DF0930E026E070E5EEC0DF0000ED3EC31
:101880000CF0046E04507F0B026E000E5EEC0DF047
:101890001200016E67EC0AF0366E0104D8A410D075
:1018A0003628D8B407D04650D8B404D0000E466EBF
:1018B000365012003628D8A409D0010E466E06D044
:1018C0000150D8A403D067EC0AF01200FF0E1200FA
:1018D000076E07C003F0D8900336D8900336C25085
:1018E000C30B0310C26EC282C2B2FED7C350C4CFB4
:1018F00003F0046A03C004F0036A0310056E045089
:10190000066E05C001F006C002F01200056E000E62
:10191000076E0450D8B415D0010E066E03D0D890CF
:101920000436062A04AEFBD7D89007360450055C6F
:10193000D8A003D00450055E0780D8900432062E4C
:10194000F3D707501200000E956E9450F80B946E6A
:101950008290000E016E020E27EC0DF0000E016E5B
:10196000380E27EC0DF0000E016E0C0E27EC0DF07A
:10197000000E016E010E27EC0DF01200A3EC0CF02E
:1019800088EC0DF026EC0CF04EEC0DF093EC0DF025
:10199000290E076E0750D8A4060E086E800E096E39
:1019A00079EC0BF01200026EBEEC0DF0D00EAAEC3A
:1019B0000DF00250AAEC0DF0C2EC0DF0D10EAAEC25
:1019C0000DF0B0EC0DF0036EBAEC0DF00350120008
:1019D0000A6E0A0E046E0A50FDEC0CF0086E0A0E38
:1019E000046E0A5086EC0CF0096E08C00AF0093843
:1019F000F00B0A100A6E0A501200056E080E066EF1
:101A0000000E076ED89005340734076ED89005365F
:101A10000450075CD8A002D00450075E062EF2D70F
:101A200007501200026EBEEC0DF0A00EAAEC0DF0F5
:101A30000250AAEC0DF0C2EC0DF0A10EAAEC0DF0D4
:101A4000B0EC0DF0036EBAEC0DF003501200026E14
:101A500001A002D0828201D0829202C083FF8284E0
:101A60008294958E828082928284829483BEFCD7F7
:101A70008290959E120001500302F3CF05F0F4CF3F
:101A800006F001500402F350062602500302F35000
:101A9000062605C001F006C002F01200C08EC08A02
:101AA000C098C096C090C082C094C292C19AC1989A
:101AB000000EC46E000EC36EC2801200036EBEEC38
:101AC0000DF0D00EAAEC0DF00350AAEC0DF0025070
:101AD000AAEC0DF0BAEC0DF01200036EBEEC0DF0A6
:101AE000A00EAAEC0DF00350AAEC0DF00250AAECE7
:101AF0000DF0BAEC0DF01200096E000E016E0850E8
:101B000027EC0DF0010E016E095027EC0DF01200CC
:101B100094869488280EC66E310EC86EC79CC78EF8
:101B20009E96A19612000F0EC16E1E0E936EF19E30
:101B30008150E009816E1200380E076E086AC00EEF
:101B4000096E79EC0BF01200016E9EA8FED701C061
:101B5000ADFF1200016E01C0C9FFCAEC0DF012000A
:101B6000C6EC0DF0CEEC0DF0C950120001000130B2
:101B700030313100C584CAEC0DF01200C580CAECCA
:101B80000DF01200C582CAEC0DF01200C586CAEC39
:101B90000DF012009EA6FED79E961200C58AC5883B
:021BA000120031
:020000040030CA
:08000000FF01191EFF8081FFC2
:00000001FF
